S01700004763634170706C69636174696F6E312E737265635B
S11300000C9458000C9475000C9475000C947500B5
S11300100C9475000C9475000C9475000C94750088
S11300200C9475000C9475000C9475000C94750078
S11300300C9475000C9475000C9475000C94750068
S11300400C9475000C9475000C9475000C94750058
S11300500C9475000C9475000C9475000C94750048
S11300600C9475000C9475006364696E6F707375FD
S113007078585B004E414E494E495459494E46CD3D
S1130080CCCC3D0AD7233C17B7D13877CC2B32954B
S113009095E6241FB14F0A000020410000C8420029
S11300A0401C4620BCBE4CCA1B0E5AAEC59D7400F3
S11300B011241FBECFEFD8E0DEBFCDBF12E0A0E019
S11300C0B1E0E2E8FCE102C005900D92AE37B10761
S11300D0D9F722E0AEE7B2E001C01D92A238B20720
S11300E0E1F70E943E040C943F0E0C940000109221
S11300F0C50087E68093C40088E18093C10086E050
S11301008093C2000895E0ECF0E0908195FFFDCF6C
S11301108093C6000895CF93DF93EC0188818823F0
S113012031F021960E94830089918111FBCFDF91E8
S1130130CF9108950F931F93CF93DF93EC01062F74
S113014010E0A80160E070E00E945306A80141504D
S1130150510914161506FCF430E0E0ECF0E086ECEE
S113016090E020812223ECF7DC012C912D3011F05A
S11301702A3021F4C30FD11D188211C061E0630F2E
S1130180DE01A30FB11D2C93262F30E02417350771
S11301901CF4362FE6CF60E0C60FD11D1882DF9124
S11301A0CF911F910F9108950F931F93CF93DF93D6
S11301B0CDB7DEB7C254D1090FB6F894DEBF0FBE77
S11301C0CDBF9E012E5F3F4F3F932F9321503109A6
S11301D03F932F9320E031E03F932F939F938F938E
S11301E00E94C00629813A81239FC00111249F9354
S11301F08F931F923F931F922F938CE091E09F93D4
S11302008F931F9280E48F938E010D5F1F4F1F9376
S11302100F930E949006C8010E948B008DEE91E01E
S11302200E948B000FB6F894DEBF0FBECDBFCE5B2D
S1130230DF4F0FB6F894DEBF0FBECDBFDF91CF9175
S11302401F910F9108950F931F93CF93DF93CDB711
S1130250DEB7C154D1090FB6F894DEBF0FBECDBFCF
S11302609E012F5F3F4F3F932F9321E231E03F9355
S11302702F939F938F930E94C0067981472F50E05C
S11302800F900F900F900F900F900F9080E090E0E0
S113029060E09A01082E02C0359527950A94E2F78A
S11302A020FD6F5F01968830910599F71F926F9337
S11302B01F927F9388E291E09F938F931F9280E433
S11302C08F938E010E5F1F4F1F930F930E94900612
S11302D0C8010E948B008DEE91E00E948B000FB646
S11302E0F894DEBF0FBECDBFCF5BDF4F0FB6F894DF
S11302F0DEBF0FBECDBFDF91CF911F910F91089547
S11303000F931F93CF93DF93CDB7DEB7C254D109B8
S11303100FB6F894DEBF0FBECDBF9E012E5F3F4FD8
S11303203F932F93215031093F932F9328E431E0D9
S11303303F932F939F938F930E94C0062A810FB6F9
S1130340F894DEBF0FBECDBF211105C084E591E056
S11303500E948B0027C03981832F622F0E943E06A2
S11303601F929F931F928F931F922F931F923F93DD
S11303708EE791E09F938F931F9280E48F938E0179
S11303800D5F1F4F1F930F930E949006C8010E9498
S11303908B008DEE91E00E948B000FB6F894DEBFC7
S11303A00FBECDBFCE5BDF4F0FB6F894DEBF0FBEDE
S11303B0CDBFDF91CF911F910F9108950F931F939C
S11303C0CF93DF93CDB7DEB7C254D1090FB6F894FB
S11303D0DEBF0FBECDBF9E012E5F3F4F3F932F93D5
S11303E0215031093F932F9323EA31E03F932F9318
S11303F09F938F930E94C0065A810FB6F894DEBF74
S11304000FBECDBF552389F0298130E040E081E063
S113041090E0BC01629FC001639F900D729F900D9C
S113042011244F5F4513F5CF02C081E090E09F9304
S11304308F931F925F9389811F928F938FEA91E02C
S11304409F938F931F9280E48F938E010D5F1F4FB4
S11304501F930F930E949006C8010E948B008DEE9B
S113046091E00E948B000FB6F894DEBF0FBECDBFA3
S1130470CE5BDF4F0FB6F894DEBF0FBECDBFDF916A
S1130480CF911F910F9108954F925F926F927F9237
S11304909F92AF92BF92CF92DF92EF92FF920F930F
S11304A01F93CF93DF93CDB7DEB7C15BD1090FB6EE
S11304B0F894DEBF0FBECDBF7C016C012FEFC21AD2
S11304C0D20A4FE350E0B6018E010F5F1F4FC801FF
S11304D00E945A0621961FAE2197F8010190002030
S11304E0E9F73197E01BF10BF39720F4898181112F
S11304F006C018C084EC91E00E948B0085C1FE0107
S113050032968D3261F096ED980F923040F08F5212
S11305108B3028F080EF91E00E948B0075C18191AF
S11305208111EFCF69E172E0CE0101960E944E067F
S1130530009709F450C18E010F5B1F4FB12CB39487
S11305400E944A06BC01882777FD8095982F0E9457
S11305502B05F80161937193819391938F0169E164
S113056072E080E090E00E944E06009709F434C1E6
S1130570FAE0BF12E4CF30C1982F9D7F9D3221F065
S113058096ED980F923040F4A9E6B0E0AC0FBD1F91
S1130590A90DB11D8C9393948191882319F028E0BF
S11305A0291550F72B2D30E0892D90E0019628175E
S11305B0390719F4911006C016C18EE192E00E9429
S11305C08B0022C1F12C0F2D10E0E9E6F0E0EC0FD6
S11305D0FD1FE00FF11F80818A3221F08F3209F074
S11305E0A7C01EC0F801EE0FFF1FEE0FFF1F81E42E
S11305F090E08C0F9D1FE80FF91FD8011196AA0FE8
S1130600BB1FAA0FBB1FA80FB91F2D913D914D9180
S11306105C9160817181828193810E94DB0531C08C
S1130620F8013196EE0FFF1FEE0FFF1F21E430E0BB
S11306302C0F3D1FE20FF31F4080518062807380B6
S113064020E030E0A901C301B2010E94BD04811180
S113065005C081E492E00E948B00D6C0F801EE0F41
S1130660FF1FEE0FFF1F81E490E08C0F9D1FE80F2A
S1130670F91FA301920160817181828193810E949B
S1130680C104F801EE0FFF1FEE0FFF1F21E430E05D
S11306902C0F3D1FE20FF31F6083718382839383CA
S11306A061E06F0D262F30E04B2D50E04150510991
S11306B0241735072CF5F9013196EE0FFF1FEE0FC5
S11306C0FF1F81E490E08C0F9D1FE80FF91F8081CC
S11306D09181A281B381F901EE0FFF1FEE0FFF1F7D
S11306E021E430E02C0F3D1FE20FF31F8083918340
S11306F0A283B3836F5F262F30E024173507DCF223
S1130700BA94892D90E00197081719077CF42F2DCE
S1130710E9E6F0E0EC0FFD1FE00FF11F31813083BB
S11307202F5F022F10E00817190794F39A94FA9494
S1130730F394F91408F447CF22966FAD22972396C9
S11307407FAD239724968FAD249725969FAD25974B
S1130750992021F15E0139E6A30EB11C7E01E5E486
S1130760EE0EF11C8501F80121918F012B3241F429
S1130770F70120813181428153810E94590407C0CD
S1130780F70120813181428153810E945804F4E0B1
S1130790EF0EF11C202F2A19291528F39F938F930C
S11307A07F936F93DF92CF928BE592E09F938F9329
S11307B01F9280E48F938E010E581F4F1F930F9347
S11307C00E949006C8010E948B000FB6F894DEBF09
S11307D00FBECDBF19C0B12CF7018181882381F0F0
S11307E03296912CC9CE22966FAD229723967FAD77
S11307F0239724968FAD249725969FAD2597CECF2A
S1130800F1E0BF12DACEEFCFCF54DF4F0FB6F8943A
S1130810DEBF0FBECDBFDF91CF911F910F91FF902F
S1130820EF90DF90CF90BF90AF909F907F906F90AC
S11308305F904F900895FC012081233389F028F4C0
S1130840213341F0223349F014C0243361F02533BD
S113085069F00FC00E94D40008950E9423010895F6
S11308600E94800108950E94DE0108950E944402BE
S113087008958FE692E00E948B000895CF93DF9352
S1130880CDB7DEB7C054D1090FB6F894DEBF0FBEA2
S1130890CDBF0E94770060E4CE0101960E949A00C9
S11308A089818823C1F3CE0101960E941B04F3CFF2
S11308B05058BB27AA270ED044C135D130F03AD1C5
S11308C020F031F49F3F11F41EF42AC10EF4E09598
S11308D0E7FB20C1E92F46D180F3BA1762077307FB
S11308E08407950718F071F49EF55EC10EF4E09547
S11308F00B2EBA2FA02D0B01B90190010C01CA01D6
S1130900A0011124FF27591B99F0593F50F4503E80
S113091068F11A16F040A22F232F342F4427585F72
S1130920F3CF469537952795A795F0405395C9F78A
S11309307EF41F16BA0B620B730B840BBAF0915042
S1130940A1F0FF0FBB1F661F771F881FC2F70EC0E1
S1130950BA0F621F731F841F48F4879577956795B4
S1130960B795F7959E3F08F0B3CF9395880F08F09D
S11309709927EE0F979587950895A8D008F481E0FC
S113098008950CD0DEC0D6D040F0CDD030F021F4A4
S11309905F3F19F0BFC0511108C1C2C0E3D098F342
S11309A09923C9F35523B1F3951B550BBB27AA27EC
S11309B062177307840738F09F5F5F4F220F331F5E
S11309C0441FAA1FA9F333D00E2E3AF0E0E830D02A
S11309D091505040E695001CCAF729D0FE2F27D02D
S11309E0660F771F881FBB1F261737074807AB07FB
S11309F0B0E809F0BB0B802DBF01FF2793585F4F70
S1130A002AF09E3F510568F085C0CFC05F3FECF3EC
S1130A10983EDCF3869577956795B795F7959F5F34
S1130A20C9F7880F911D9695879597F90895E1E088
S1130A30660F771F881FBB1F621773078407BA07E7
S1130A4020F0621B730B840BBA0BEE1F88F7E09542
S1130A500895E89409C097FB3EF4909580957095AD
S1130A6061957F4F8F4F9F4F9923A9F0F92F96E9F6
S1130A70BB279395F695879577956795B795F1116B
S1130A80F8CFFAF4BB0F11F460FF1BC06F5F7F4F08
S1130A908F4F9F4F16C0882311F096E911C077231A
S1130AA021F09EE8872F762F05C0662371F096E823
S1130AB0862F70E060E02AF09A95660F771F881FF2
S1130AC0DAF7880F9695879597F90895990F000896
S1130AD0550FAA0BE0E8FEEF16161706E807F9070C
S1130AE0C0F012161306E407F50798F0621B730BA7
S1130AF0840B950B39F40A2661F0232B242B252B28
S1130B0021F408950A2609F4A140A6958FEF811DCA
S1130B10811D089597F99F6780E870E060E008956B
S1130B209FEF80EC089500240A9416161706180601
S1130B300906089500240A941216130614060506DD
S1130B400895092E0394000C11F4882352F0BB0F6E
S1130B5040F4BF2B11F460FF04C06F5F7F4F8F4FD1
S1130B609F4F089557FD9058440F551F59F05F3F0C
S1130B7071F04795880F97FB991F61F09F3F79F0BB
S1130B8087950895121613061406551FF2CF46953D
S1130B90F1DF08C0161617061806991FF1CF8695BF
S1130BA07105610508940895E894BB2766277727A3
S1130BB0CB0197F908950BD0C4CFB5DF28F0BADF85
S1130BC018F0952309F0A6CFABCF1124EECFCADFDE
S1130BD0A0F3959FD1F3950F50E0551F629FF0014C
S1130BE0729FBB27F00DB11D639FAA27F00DB11DA5
S1130BF0AA1F649F6627B00DA11D661F829F22272E
S1130C00B00DA11D621F739FB00DA11D621F839FB4
S1130C10A00D611D221F749F3327A00D611D231F8A
S1130C20849F600D211D822F762F6A2F11249F57D8
S1130C3050408AF0E1F088234AF0EE0FFF1FBB1FFB
S1130C40661F771F881F91505040A9F79E3F51059A
S1130C5070F060CFAACF5F3FECF3983EDCF386954B
S1130C6077956795B795F795E7959F5FC1F7FE2B45
S1130C70880F911D9695879597F90895991B79E0AA
S1130C8004C0991F961708F0961B881F7A95C9F718
S1130C9080950895662777270C94600B4EE752E001
S1130CA00E9469060895DC0101C06D9341505040D3
S1130CB0E0F70895FB01DC014150504048F00190F9
S1130CC00D920020C9F701C01D9241505040E0F739
S1130CD00895FA01A191B081009719F41097E1F0F9
S1130CE0CD01DC01CD010D90002011F4C00113C031
S1130CF0FB012191222319F02015D9F7F3CFFB0131
S1130D002191201519F41E92119606C02223C1F7D1
S1130D100D900020A1F7D001FA01A193B0830895AA
S1130D20AEE0B0E0E6E9F6E00C94070E0D891E890A
S1130D308F89988D26E02C831A83098397FF02C03C
S1130D4080E090E801979E838D83AE01455E5F4FFE
S1130D50698D7A8DCE0101960E94D9064D815E81FE
S1130D6057FD0AC02F813885421753070CF49A01A6
S1130D70F801E20FF31F10822E96E4E00C94230E88
S1130D80AEE0B0E0E6ECF6E00C94090E85E08C836E
S1130D908B899C899A838983AE01495E5F4F6D89F3
S1130DA07E89CE0101960E94290A2E96E2E00C94D7
S1130DB0250EACE0B0E0EFEDF6E00C94F90D7C010B
S1130DC06B018A01FC0117821682838181FFBDC1F8
S1130DD0CE0101964C01F7019381F60193FD8591B3
S1130DE093FF81916F01882309F4ABC1853239F4F3
S1130DF093FD859193FF81916F01853229F4B701A9
S1130E0090E00E94420DE7CF512C312C20E020329B
S1130E10A0F48B3269F030F4803259F0833269F4F3
S1130E2020612CC08D3239F0803339F4216026C022
S1130E302260246023C0286021C027FD27C030ED34
S1130E40380F3A3078F426FF06C0FAE05F9E300D82
S1130E501124532E13C08AE0389E300D1124332EF2
S1130E6020620CC08E3221F426FD6BC1206406C0C2
S1130E708C3611F4206802C0883641F4F60193FDE3
S1130E80859193FF81916F018111C1CF982F9F7D2F
S1130E909554933028F40C5F1F4FFFE3F9830DC082
S1130EA0833631F0833771F0833509F05BC022C09B
S1130EB0F801808189830E5F1F4F44244394512C91
S1130EC0540115C03801F2E06F0E711CF801A080C6
S1130ED0B18026FF03C0652D70E002C06FEF7FEF85
S1130EE0C5012C870E94F90C2C0183012C852F77D6
S1130EF0222E17C03801F2E06F0E711CF801A08099
S1130F00B18026FF03C0652D70E002C06FEF7FEF54
S1130F10C5012C870E94EE0C2C012C852068222E02
S1130F20830123FC1BC0832D90E048165906B0F4BE
S1130F30B70180E290E00E94420D3A94F4CFF501AB
S1130F4027FC859127FE81915F01B70190E00E9403
S1130F50420D31103A94F1E04F1A510841145104F2
S1130F6071F7E5C0843611F0893639F5F80127FFA9
S1130F7007C060817181828193810C5F1F4F08C01B
S1130F8060817181882777FD8095982F0E5F1F4FB0
S1130F902F76B22E97FF09C0909580957095619534
S1130FA07F4F8F4F9F4F2068B22E2AE030E0A4017C
S1130FB00E948D0DA82EA81844C0853729F42F7ED1
S1130FC0B22E2AE030E025C0F22FF97FBF2E8F36F3
S1130FD0C1F018F4883579F0B4C0803719F0883737
S1130FE021F0AFC02F2F2061B22EB4FE0DC08B2D87
S1130FF08460B82E09C024FF0AC09F2F9660B92EC2
S113100006C028E030E005C020E130E002C020E165
S113101032E0F801B7FE07C060817181828193815B
S11310200C5F1F4F06C06081718180E090E00E5F0D
S11310301F4FA4010E948D0DA82EA818FB2DFF7729
S1131040BF2EB6FE0BC02B2D2E7FA51450F4B4FE7C
S11310500AC0B2FC08C02B2D2E7E05C07A2C2B2D85
S113106003C07A2C01C0752C24FF0DC0FE01EA0DCB
S1131070F11D8081803311F4297E09C022FF06C04E
S11310807394739404C0822F867809F0739423FDBB
S113109013C020FF06C05A2C731418F4530C5718AD
S11310A0732C731468F4B70180E290E02C870E94DB
S11310B0420D73942C85F5CF731410F4371801C0C6
S11310C0312C24FF12C0B70180E390E02C870E94EA
S11310D0420D2C8522FF17C021FF03C088E590E054
S11310E002C088E790E0B7010CC0822F867859F0DF
S11310F021FD02C080E201C08BE227FD8DE2B70131
S113110090E00E94420DA51438F4B70180E390E00A
S11311100E94420D5A94F7CFAA94F401EA0DF11DEE
S11311208081B70190E00E94420DA110F5CF3320D9
S113113009F451CEB70180E290E00E94420D3A9446
S1131140F6CFF7018681978102C08FEF9FEF2C962F
S1131150E2E10C94150E20FD09C0FC0123FD05C03D
S113116022FF02C07383628351834083089544FD48
S113117010C046FD10C0DB01FC01AA0FBB1FEE1F0F
S1131180FF1F1094D1F76A0F7B1F8E1F9F1F31E042
S113119003C033E001C034E0660F771F881F991F36
S11311A03150D1F7620F711D811D911D08950F9368
S11311B01F93CF93DF938C01C8010E94040DEC01AF
S11311C097FD08C00E94C30C892BB1F7B801CE016A
S11311D00E94740DCE01DF91CF911F910F9108955C
S11311E08F929F92AF92CF92DF92EF92FF920F93E2
S11311F01F93CF93DF93EC01A62E4A01022F0E9486
S1131200040DAC0155274B32510521F04D325105E7
S113121051F40068AA9411F480E067C0CE010E94E2
S1131220040D97FDF9CF102F1D7F302F307301F57A
S11312308033F1F4FF24FA94FA0C09F442C0CE018D
S11312400E94040D97FD3DC0382F3F7D383551F481
S11312501264AA94AA94A9F1CE010E94040D97FFE6
S113126007C02FC006FF02C0126001C01261AF2C7C
S1131270C12CD12C760120ED280F283080F014FFEA
S113128004C0BE010E94740D19C02A3040F016FF3C
S1131290F8CF2F7D3FEE320F363098F72750412F8D
S11312A0C701B6010E94B7086B017C011260AA94C1
S11312B059F0CE010E94040D97FFDDCF11FD04C04B
S11312C0ABCFC12CD12C760117FF08C0F094E09469
S11312D0D094C094C11CD11CE11CF11C212FB70176
S11312E0A601C4010E94AB0881E0DF91CF911F9158
S11312F00F91FF90EF90DF90CF90AF909F908F90E1
S11313000895A1E2B0E0E7E8F9E00C94FE0D5C0179
S11313107A018E010F5F1F4F680180E2D8011D9290
S11313208A95E9F7F501738040E050E0812CB0E044
S1131330912C81E090E0F90173FCA59173FEA191D9
S11313408F017A2F9F01A11103C080E090E07DC03E
S1131350AE3519F44115510559F1E92DF0E0E417C2
S1131360F5073CF4AD3569F1AD3219F4BB2319F13D
S113137003C0B11101C08A2EE72FE695E695E695E4
S113138086010E0F111DF801A72FA7708C0102C052
S1131390000F111FAA95E2F7D801B081BA2BB083D0
S11313A0781559F0781510F47F5FE6CF7150E4CFCB
S11313B09924939403C0B1E001C0B0E04F5F5F4F44
S11313C0BACFBB2319F08E8180628E83911003C043
S11313D09924939415C0F601CE018196208120951D
S11313E02193E817F907D1F7F3CFE114F10429F0B9
S11313F0D7018C93F70131967F01615001F1912C53
S1131400C50169A30E94040D69A197FD16C0282F88
S1131410269526952695F601E20FF11D208130E0F0
S1131420AC014770552702C0359527954A95E2F7D8
S113143020FDDBCFB5010E94740D911086CFE1141D
S1131440F10411F0D7011C92C801A196EDE00C94AF
S11314501A0E4F925F927F928F929F92AF92BF9299
S1131460CF92DF92EF92FF920F931F93CF93DF936C
S11314701F92CDB7DEB78C012B017A01FC011782D4
S11314801682A12CF801D380F201D3FC8591D3FEFE
S11314908191382F2F01882309F4FCC090E039830F
S11314A00E94C30C3981892B21F0C8010E94D708FE
S11314B0E9CF353241F4F201D3FC3591D3FE3191B9
S11314C02F01353269F4C80139830E94040D398132
S11314D097FDDEC03817B1F2B8010E94740DDAC06E
S11314E03A3241F4D3FC3591D3FE31912F01BB2420
S11314F0B39401C0B12C712C20ED230F2A3090F449
S1131500FB2DF260BF2E672D70E080E090E040E29A
S11315100E94B708762EF201D3FC3591D3FE3191A7
S11315202F01EACFB1FE03C0711003C0B3C077240A
S11315307A94383619F03C3661F014C0F201D3FCC9
S11315403591D3FE31912F01383661F4FB2DF860CB
S1131550BF2E8B2D8460B82EF201D3FC3591D3FEBF
S113156031912F01332309F495C0632F70E088E68D
S113157090E039830E94CB0C3981892B09F48AC00D
S1131580B0FC07C0F701C080D180C70102967C017E
S113159002C0C12CD12C3E3651F4F801468157814A
S11315A060E070E02B2DC6010E94AB086BCF333690
S11315B0A1F4B1FC02C077247394C8010E94040D05
S11315C097FD66C0C114D10429F0F6018083C601D9
S11315D001966C017A9489F757C03B3559F492010E
S11315E0A601672DC8010E9481092C01009709F00A
S11315F04BC045C0C80139830E94D708398197FD83
S113160047C03F3669F128F4343631F1393679F17F
S11316102BC0333769F03537F9F026C0C114D10433
S113162029F0F6018082C60101966C017A9471F06A
S1131630C8010E94040D4C0197FD08C00E94C30C10
S1131640892B61F3B801C4010E94740DC114D10443
S1131650D9F0F601108218C0FB2DF062BF2E07C02E
S11316608B2D8061B82E03C09B2D9064B92E2B2D39
S1131670A601672DC8010E94F008811105C0F80178
S11316808381807329F406C0B0FCFCCEA394FACE07
S1131690AA2019F08A2D90E002C08FEF9FEF0F90DF
S11316A0DF91CF911F910F91FF90EF90DF90CF903A
S11316B0BF90AF909F908F907F905F904F900895D0
S11316C0A0E0B0E0E6E6FBE00C94FF0D8B016115B1
S11316D0710521F0DB018C9311969C93EC015E0162
S11316E0BFEFAB1ABB0A7501C8808C2D90E00E9435
S11316F0C30C892B11F0E501F2CFEDE2CE1208C044
S11317007E01F2E0EF0EF11CC980DD24D39409C000
S11317102BE2C21205C07E0142E0E40EF11CC98036
S1131720D12CE701219743E050E06CE770E0CE0153
S11317300E94D60C892BC1F4239645E050E067E75C
S113174070E0CE010E94D60C892B09F42596011570
S1131750110519F0D801CD93DC93D11006C160E0D6
S113176070E080E89FE70AC143E050E064E770E07E
S1131770CE010E94D60C892B59F40115110509F4E8
S1131780F9C0B2E0EB0EF11CF801F182E082F2C084
S1131790F70160E070E0CB01C0E0D0E07F01A0ED94
S11317A0AA2EAC0C29E02A1530F14D2D4260B42E3E
S11317B02D2D2870D2FE04C0211125C0219623C0EE
S11317C021112197A5E0B0E09B01AC010E94EE0D30
S11317D0660F771F881F991F6A0D711D811D911D4A
S11317E06839A9E97A078A07A9E19A0760F0BD2D4B
S11317F0B660BB2E08C02EEFA2120AC0D3FC50C0A4
S11318004D2D4860B42E3196D701CC90DB2CC6CF39
S11318102C2D2F7D253409F043C0A081AD3241F435
S1131820BD2DB061DB2E7F0122E0E20EF11C0CC065
S11318307F01AB3231F04FEFE41AF40A21E030E0DB
S113184006C0A2E0EA0EF11CA18122E030E0A05320
S1131850AA3018F0E21AF30A23C0F70120E030E0BE
S11318602038BCE03B075CF4A901440F551F440F2A
S1131870551F240F351F220F331F2A0F311DAF01AF
S11318804F5F5F4F7A01A081A053AA3010F4FA0190
S1131890E7CFD4FE03C0319521953109C20FD31F80
S11318A0D1FE09C00115110531F0E1E0EE1AF1088D
S11318B0D801ED92FC920E9429052D2D237023302E
S11318C019F04B015C0106C04B015C01B7FAB094FE
S11318D0B7F8B09420E030E0A901C501B4010E943A
S11318E0BD04882309F43EC0D7FF06C0D195C19535
S11318F0D10903E910E002C00BEA10E06801B8E185
S1131900CB1AD10890E2E92EF12CCE15DF0574F044
S1131910F8012591359145915491C501B4010E9476
S1131920DB054B015C01CE19DF09EFCF045011092F
S1131930F594E7940C151D0541F78A2D880F8B2D1E
S1131940881F8F3F49F020E030E0A901C501B401B0
S11319500E94BD04811106C082E290E0909381024E
S113196080938002C501B40109C060E070E080E8A2
S11319709FEF04C060E070E080EC9FE7CDB7DEB776
S1131980ECE00C941B0E911126C1803219F08950A1
S11319908550D0F70895FC010590061621F000202B
S11319A0D9F7C00108953197CF010895FB01DC01F7
S11319B04150504088F08D9181341CF08B350CF4EB
S11319C0805E659161341CF06B350CF4605E861B9F
S11319D0611171F3990B0895881BFCCFFC010590EC
S11319E0615070400110D8F7809590958E0F9F1F1D
S11319F00895FC016150704001900110D8F7809562
S1131A0090958E0F9F1F0895CF93DF93EC012B8148
S1131A1020FF33C026FF0AC02F7B2B838E819F813A
S1131A2001969F838E838A8190E029C022FF0FC094
S1131A30E881F9818081992787FD9095009719F4B1
S1131A4020622B831AC03196F983E8830EC0EA859D
S1131A50FB85099597FF09C02B81019611F480E15C
S1131A6001C080E2822B8B8308C02E813F812F5FCF
S1131A703F4F3F832E83992702C08FEF9FEFDF9163
S1131A80CF9108950F931F93CF93DF93182F092FAE
S1131A90EB018B8181FD03C08FEF9FEF20C082FF9C
S1131AA010C04E815F812C813D81421753077CF425
S1131AB0E881F9819F012F5F3F4F39832883108389
S1131AC006C0E885F985812F0995892B29F72E8190
S1131AD03F812F5F3F4F3F832E83812F902FDF91D4
S1131AE0CF911F910F910895FB01238120FF12C014
S1131AF026FD10C08F3F3FEF930761F082832F7D57
S1131B00206423832681378121503109378326833A
S1131B10992708958FEF9FEF0895FA01AA27283097
S1131B2051F1203181F1E8946F936E7F6E5F7F4FA6
S1131B308F4F9F4FAF4FB1E03ED0B4E03CD0670F22
S1131B40781F891F9A1FA11D680F791F8A1F911D75
S1131B50A11D6A0F711D811D911DA11D20D009F4C5
S1131B6068943F912AE0269F11243019305D319307
S1131B70DEF6CF010895462F4770405D4193B3E0F0
S1131B800FD0C9F7F6CF462F4F70405D4A3318F097
S1131B90495D31FD4052419302D0A9F7EACFB4E048
S1131BA0A6959795879577956795BA95C9F7009700
S1131BB06105710508959B01AC010A2E06945795A1
S1131BC0479537952795BA95C9F7620F731F841FF8
S1131BD0951FA01D08959927882708950E94300E07
S1131BE0A59F900DB49F900DA49F800D911D11246D
S1131BF008952F923F924F925F926F927F928F92AD
S1131C009F92AF92BF92CF92DF92EF92FF920F9387
S1131C101F93CF93DF93CDB7DEB7CA1BDB0B0FB691
S1131C20F894DEBF0FBECDBF09942A88398848884E
S1131C305F846E847D848C849B84AA84B984C884E4
S1131C40DF80EE80FD800C811B81AA81B981CE0FDB
S1131C50D11D0FB6F894DEBF0FBECDBFED010895C0
S1131C60A29FB001B39FC001A39F700D811D1124D9
S1131C70911DB29F700D811D1124911D0895F8943A
S1051C80FFCF90
S1131C823120256868752025686875005461736B76
S1131C9220313A202575202A202575203D202575DE
S1131CA200322025686875005461736B20323A2033
S1131CB24E756D626572206F6620317320696E20E5
S1131CC22575203D2025750033202568687520255B
S1131CD2686875005461736B20333A2044697669ED
S1131CE273696F6E206279207A65726F206973203E
S1131CF26E6F7420616C6C6F7765640D0A005461B9
S1131D02736B20333A202575202F202575203D2022
S1131D1225752C2052656D61696E646572203D20C3
S1131D222575003420256868752025686875005477
S1131D3261736B20343A202575205E202575203D81
S1131D42202575004572726F723A2045787072656B
S1131D527373696F6E20746F6F206C6F6E672028C7
S1131D626D6178203530206368617273290D0A0031
S1131D724572726F723A20496E76616C69642063AF
S1131D82686172616374657220696E20657870722D
S1131D92657373696F6E0D0A002B2D2A2F0045722D
S1131DA2726F723A20496E76616C6964206578704C
S1131DB272657373696F6E20666F726D61740D0A5A
S1131DC2004572726F723A204469766973696F6E64
S1131DD2206279207A65726F0D0A00526573756C00
S1131DE2743A202573203D20252E32660D0A0055B3
S1111DF26E6B6E6F776E207461736B0D0A005A
S9030000FC
